:020000040008F2
:1000000060040020750108007D0108007F010800E0
:10001000810108008301080085010800000000003C
:100020000000000000000000000000008701080040
:1000300089010800000000008B0108008D01080004
:100040008F0108008F0108008F0108008F01080050
:100050008F0108008F0108008F0108008F01080040
:100060008F0108008F0108008F0108008F01080030
:100070008F0108008F0108008F0108008F01080020
:100080008F0108008F0108008F0108008F01080010
:100090008F0108008F0108008F0108008F01080000
:1000A0008F0108008F0108008F0108008F010800F0
:1000B0008F0108008F0108008F0108008F010800E0
:1000C0008F0108008F0108008F0108008F010800D0
:1000D0008F0108008F0108008F0108008F010800C0
:1000E0008F0108008F0108008F0108008F010800B0
:1000F0008F01080000F002F800F02CF80AA090E848
:10010000000C82448344AAF10107DA4501D100F0D2
:1001100021F8AFF2090EBAE80F0013F0010F18BF73
:10012000FB1A43F001031847E0010000F001000052
:100130000023002400250026103A28BF78C1FBD8F0
:10014000520728BF30C148BF0B6070471FB51FBDA5
:1001500010B510BD00F031F81146FFF7F7FF00F0C1
:10016000D1F800F04FF803B4FFF7F2FF03BC00F042
:1001700057F800000948804709480047FEE7FEE7B6
:10018000FEE7FEE7FEE7FEE7FEE7FEE7FEE7FEE747
:1001900004480549054A064B704700003102080033
:1001A000F5000800600000206004002060020020CC
:1001B00060020020704770477047754600F02CF8C9
:1001C000AE4605006946534620F00700854618B044
:1001D00020B5FFF7DDFFBDE820404FF000064FF0EF
:1001E00000074FF000084FF0000B21F00701AC466C
:1001F000ACE8C009ACE8C009ACE8C009ACE8C0098B
:100200008D46704710B50446AFF300802046BDE828
:100210001040FFF7A8BF0000004870470000002012
:1002200001491820ABBEFEE726000200704700001F
:100230004FF440702C4908602C4908602C482D4927
:1002400008602D482B49C439086000BF29487C3814
:10025000006800F001000028F8D04FF42000254984
:10026000C839086025482349BC39086000BF2148C7
:100270007C38006800F002000028F8D01D48B4382F
:10028000006820F0700040F010001A49B43908608E
:1002900000BF18487C38006800F008000028F8D03B
:1002A00012201449B439086000BF12487C38006835
:1002B00000F008000028F8D000200E49E43908605A
:1002C0004FF470500B49D43908604FF4E05009499D
:1002D0001C3108600648401C064908604FF4004085
:1002E0000749086070470000000A0E40000C0E40ED
:1002F00000434D50E4060E400101370101060D2078
:10030000541A0E4000BFFEE718030800000000204A
:08031000600400003001080048
:040000050008017579
:00000001FF
